:100000000C94FE030C9436040C9436040C943604C1
:100010000C9436040C9436040C9436040C94360478
:100020000C9436040C9436040C94182B0C94EA2B84
:100030000C9436040C9436040C9436040C94360458
:100040000C9436040C94091C0C9436040C9436045D
:100050000C94661E0C94F7250C9436040C9436040C
:100060000C9436040C9436040C9436040C94360428
:100070000C9436040C9436040C9436040C94360418
:100080000C9436040C9436040C9436040C94360408
:100090000C9436040C9436040C9436040C943604F8
:1000A0000C9436040C9436040C943604F007F007D4
:1000B0001C081C0884087E097E097E09A2080A091A
:1000C0001B091B09751D771D7C1D7F1D821D851D4C
:1000D000881D742077209720A820B020BB20BE2048
:1000E000C520CC2014211421D120D420D920E620F1
:1000F000F320F620FA200721572C7E2C762D7E2C1B
:10010000762DCA2CED2C762D442D532D29001E0062
:100110001F002000210022002300240025002600CB
:1001200027002D002E002A002B0014001A000800C2
:10013000150017001C0018000C00120013002F00FF
:1001400030000100390004001600070009000A0011
:100150000B000D000E000F003300340028003100AA
:10016000E1001D001B000600190005001100100031
:10017000360037003800E50001000000E000E30031
:10018000E2000100000000002C0000000100E60079
:100190000151E700E40000000100BF5CBD5CBE5CF3
:1001A0000100010001000100010001000100010047
:1001B000010001000100010001000100005C0100DC
:1001C0000100010001000100010001000100010027
:1001D0000100C25CC35CC65CC55CC85CC75CCA5C31
:1001E000C95C0100010001000100010001000100E3
:1001F00001000100010001000100010001000100F7
:1002000001000100010000000100010001000100E7
:1002100000000000AE00000001000100010001002C
:1002200001000000010001000100010001000100C7
:1002300001000100010001000100010001000100B6
:1002400001000100010001000100010001000100A6
:100250000100010001000100010001000100010096
:100260000100010001000100010001000100010086
:100270000100010001000100010001000100010076
:100280000100010001000100010001000100010066
:100290000100000001000100010001000000000059
:1002A0000100000001000100010001000100000048
:1002B0000100010001000100010001000100010036
:1002C0000100010001000100010001000100010026
:1002D0000100010001000100010001000100010016
:1002E0000100010001000100010001000100010006
:1002F00001000100010001000100010001000100F6
:1003000001000100010001000100010001000100E5
:1003100001000100010001000100010001000000D6
:1003200001000100010001000000000001000000C8
:1003300001000100010001000100000000000000B8
:10034000000000002A2B2800000000000000000030
:100350000000000000000029000000002C1E3420D6
:10036000212224342627252E362D3738271E1F20FC
:100370002122232425263333362E37381F04050641
:100380000708090A0B0C0D0E0F1011121314151685
:100390001718191A1B1C1D2F3130232D3504050683
:1003A0000708090A0B0C0D0E0F1011121314151665
:1003B0001718191A1B1C1D2F3130354C0000000076
:1003C000000000000000000000000000000000002D
:1003D000000000000000000000000000000000001D
:1003E0007E0F00D4FFFFFFC70000007800047F3FAE
:1003F0001F643214643214783C1E1E140A05222332
:10040000252628292A2C2D2F3032333536383A3BF1
:100410003D3E4042434547494A4C4E505153555743
:10042000595A5C5E6062646668696B6D6F71737562
:1004300077797B7D7F81838587898A8C8E90929462
:1004400096989A9C9E9FA1A3A5A7A8AAACAEAFB16F
:10045000B3B4B6B8B9BBBCBEBFC1C2C3C5C6C7C9B9
:10046000CACBCCCDCED0D1D2D2D3D4D5D6D7D7D873
:10047000D9D9DADADBDBDBDCDCDCDCDCDDDDDDDDC5
:10048000DCDCDCDCDCDBDBDBDADAD9D9D8D7D7D6CD
:10049000D5D4D3D2D2D1D0CECDCCCBCAC9C7C6C584
:1004A000C3C2C1BFBEBCBBB9B8B6B4B3B1AFAEACCA
:1004B000AAA8A7A5A3A19F9E9C9A98969492908E75
:1004C0008C8A89878583817F7D7B79777573716F4E
:1004D0006D6B6968666462605E5C5A59575553512A
:1004E000504E4C4A4947454342403E3D3B3A3836E0
:1004F000353332302F2D2C2A292826252322FFAAF6
:100500007F554000000000000000000000000102D4
:1005100004060A0F17202C3A4A5D71879DB3C7DA8B
:10052000E9F5FCFFFCF5E9DAC7B39D87715D4A3A4E
:100530002C20170F0A060402010000000000000032
:1005400000000000000000000000000000000101A9
:100550000203040506080A0C0F1114181C20242994
:100560002E33393F464C535B626A7179818A929A85
:10057000A2AAB2B9C1C8CFD5DCE1E7EBF0F4F7FA33
:10058000FCFDFEFFFEFDFCFAF7F4F0EBE7E1DCD545
:10059000CFC8C1B9B2AAA29A928A8179716A625B04
:1005A000534C463F39332E2924201C1814110F0CAC
:1005B0000A08060504030201010000000000000013
:1005C000000000000101010101010101010202021C
:1005D00002020202020203030303030303030404EF
:1005E00004040404040505050505060606060607B9
:1005F0000707070708080808090909090A0A0A0B72
:100600000B0B0C0C0C0D0D0D0E0E0E0F0F0F101012
:100610001111111212131314141515161617171899
:100620001819191A1A1B1B1C1D1D1E1E1F20202104
:100630002222232424252626272829292A2B2C2D4B
:100640002D2E2F30313232333435363738393A3B6C
:100650003C3D3E3F404142434445464748494A4C61
:100660004D4E4F50515354555658595A5B5D5E5F2D
:10067000616264656668696B6C6D6F7072737577C3
:10068000787A7B7D7E8082838587888A8C8E8F9125
:10069000939596989A9C9EA0A2A3A5A7A9ABADAF4F
:1006A000B1B3B5B7BABCBEC0C2C4C6C9CBCDCFD139
:1006B000D4D6D8DBDDDFE2E4E7E9EBEEF0F3F5F8E2
:1006C000FAFDFF08036800360030000000280368C8
:1006D0000069006E006500790062007500730068B3
:1006E0000020006B006500790062006F00610072FD
:1006F000006400730000000403090409025B0003A6
:100700000100A0FA09040000010301010009211100
:1007100001000122400007058103080001090401CE
:10072000000203000000092111010001222200073C
:1007300005820320000107050303200001090402CC
:10074000000103000000092111010001223200070D
:100750000584032000011201000200000008D804F3
:10076000BEEB0100010200010660FF0961A1010961
:1007700062150026FF0095207508810209631500A7
:1007800026FF00952075089102C005010980A1018E
:10079000850319012AB700150126B70095017510C8
:1007A0008100C0050C0901A101850419012AA002DC
:1007B000150126A002950175108100C005010906EA
:1007C000A101050719E029E7150025019508750124
:1007D00081029501750881010507190029FF15009F
:1007E00026FF009506750881000508190129059561
:1007F0000575019102950175039101C011241FBE79
:10080000CFEFDAE0DEBFCDBF04B603FE18C08091A3
:10081000DB029091DC02A091DD02B091DE02873014
:10082000904BA740B04B59F41092DB021092DC02BF
:100830001092DD021092DE02E0E0F8E3099511E08B
:10084000A0E0B1E0ECE4FDE502C005900D92A03D12
:10085000B107D9F722E0A0EDB1E001C01D92AB3D98
:10086000B207E1F70E9499140C94A42E0C94000096
:100870003E9A0895CF93C82F0E941B06882329F023
:10088000C1FD02C0469A01C0469881E0CF9108950B
:1008900081E0089581E008950C944A0408950C9431
:1008A0004E041F93CF93DF9300D000D01F92CDB79B
:1008B000DEB749835A836B833091D30189819A8152
:1008C000311114C0662359F0222349F00E94090B0C
:1008D000182F682F89819A810E94B20A03C00E9452
:1008E000DD0A182F69817A81812F04C00E94090BCB
:1008F00069817A810F900F900F900F900F90DF9188
:10090000CF911F910C942F23FC01262F4081518100
:100910006281738184810C94510481E00895CF93A6
:10092000DF93EC0160E00E948404BE01DF91CF916F
:100930000C944F04E1E0F0E0DF0102C0AA0FBB1FFE
:100940006A95E2F7BD01DF0102C0AA0FBB1F4A95FD
:10095000E2F7AD01462B01C0EE0F2A95EAF7942F7E
:100960009823491302C08E2B0895E0958E23089595
:10097000242F462F682F8091EF010E949A040C9437
:100980006F0A0C9438040C944A1308950E940A0AC2
:100990000E94C5042FEF84E39CE0215080409040EA
:1009A000E1F700C000000C941D260F931F93CF9316
:1009B000DF938C0161E00E948404EC01B8010E9485
:1009C000951F882309F452C0B801CE010E944C043F
:1009D000882309F44BC0B801CE010E94661D88230C
:1009E00009F444C0B801CE010E9495248823F1F196
:1009F000B801CE010E9421218823C1F1B801CE01A6
:100A00000E94F123882391F1B801CE010E941C1BA2
:100A1000882361F1F8018281882309F1CA358DE5C7
:100A2000D807C1F050F4C115FCE5DF0781F0CE3DD9
:100A3000DC45A9F40E942A1019C0CB35EDE5DE078C
:100A400061F0CC35DD4559F40E946E0F08C00E945C
:100A5000C6040CC00E94770F02C00E947A0FC80122
:100A6000DF91CF911F910F910C94480480E0DF91AA
:100A7000CF911F910F9108950C949E250E948A1C7E
:100A80000E9427060E94651A0C94A425DF92EF921B
:100A9000FF920F931F93CF93DF93E82FF0E0E45C76
:100AA000FC4FD490282F26952695269530E0F90105
:100AB000E452FC4F0491877010E0082E02C0159597
:100AC00007950A94E2F701701127F901E453FC4FEE
:100AD000E490F12C082E02C0F594E7940A94E2F712
:100AE00091E0E922FF24F901E454FC4FC491D0E0E5
:100AF00002C0D595C7958A95E2F7C170DD2701152B
:100B0000110519F081EE0E948606E114F10419F036
:100B100086EE0E9486068D2D0E949E07EF2819F012
:100B200086EE0E942807012B19F081EE0E9428070B
:100B3000CD2B51F08CE2DF91CF911F910F91FF905F
:100B4000EF90DF900C949E07DF91CF911F910F9152
:100B5000FF90EF90DF900895EF92FF920F931F9315
:100B6000CF93DF93EC01162F0AE08881882309F4E4
:100B700055C0813009F043C08981813041F47E0144
:100B800082E0E80EF11C8A810E949E0709C0823033
:100B900049F47E01E2E0EE0EF11C8A810E94860695
:100BA000E7012FC0833041F47E01F2E0EF0EF11C2B
:100BB0008A810E942807F4CF843011F0219621C049
:100BC0002A81229680E090E030E0205331092A30DB
:100BD000310558F4089FA001099F500D1124C90147
:100BE000840F951F21962881EFCF009751F0EFE9F0
:100BF000FFE03197F1F700C000000197F6CF0E94A7
:100C000046052196812F882309F4AFCFEFE9FFE055
:100C10003197F1F700C000008150F5CFDF91CF91FF
:100C20001F910F91FF90EF90089560E00C94AC0538
:100C300008950C94180681E008950895CF93C82F65
:100C40000E9419068C2F0E943A04CF9108950E94A9
:100C5000F1240C941E060E94F1249091D201891770
:100C600021F08093D2010C941E060895CF93DF9358
:100C7000CDB7DEB72B970FB6F894DEBF0FBECDBF52
:100C80004F83588769877A878B8761110E94BA0ED4
:100C90009E012F5F3F4F86E0F90111928A95E9F797
:100CA00085E0FE013796D90101900D928A95E1F712
:100CB00089819A814C815D81452B31F09F3F31F4D0
:100CC00091E08F3F19F403C091E001C090E090FFE4
:100CD00009C049815A816B817C818D819E810E94EE
:100CE000DB0D05C0C9010E948D048111F2CF2B9646
:100CF0000FB6F894DEBF0FBECDBFDF91CF91089540
:100D0000FC01808191810E94360B0895CF93882346
:100D100009F49CC0C82F8238C1F40E94F12481FDDF
:100D200095C069E380910201909103010E947625AC
:100D30000E94DC0E2FEF81EE94E021508040904025
:100D4000E1F700C0000069E319C0833801F50E9493
:100D5000F12480FD7BC063E5809102019091030145
:100D60000E9476250E94DC0E2FEF81EE94E0215048
:100D700080409040E1F700C0000063E580910201EF
:100D8000909103010E947825CF910C94DC0E843859
:100D9000C1F40E94F12482FD59C067E480910201F0
:100DA000909103010E9476250E94DC0E2FEF81EEC8
:100DB00094E0215080409040E1F700C0000067E4DB
:100DC000DDCF8CEF8C0F813AD0F46C2F8091020133
:100DD000909103010E944025882349F06C2F809157
:100DE0000201909103010E9478250E94DC0E6C2F75
:100DF00080910201909103010E947625C5CF80E287
:100E00008C0F883048F4C77081E001C0880FCA9504
:100E1000EAF70E949D0EB8CFEBE5EC0FE33040F40B
:100E2000F0E0EC5AFE4F808190E0CF910C940825C1
:100E3000C85AC73158F4EC2FF0E0EE0FFF1FEA5DFF
:100E4000FE4F80819181CF910C941E25CF91089502
:100E5000882309F45BC0682F823879F40E94F1245A
:100E600081FF54C069E380910201909103010E94C7
:100E700076250E94DC0E69E310C08338B1F40E942D
:100E8000F12480FF43C063E580910201909103014A
:100E90000E9476250E94DC0E63E58091020190910C
:100EA00003010E9478250C94DC0E843879F40E94AA
:100EB000F12482FF2BC067E480910201909103012D
:100EC0000E9476250E94DC0E67E4E7CF8CEF860F48
:100ED000813A18F380E2860F883048F4677081E029
:100EE00001C0880F6A95EAF70E94A30EDCCF8BE55C
:100EF000860F833020F480E090E00C940825685A37
:100F0000673120F480E090E00C941E2508951F9333
:100F1000CF93DF93182FEB010E948606209741F0B4
:100F20008FE99FE00197F1F700C000002197F6CF0D
:100F3000812FDF91CF911F910C942807893319F0ED
:100F400060E070E002C060E570E00C9487078823E1
:100F500021F00E949D0E0C94DC0E0895882321F050
:100F60000E94A30E0C94DC0E0895CF92DF92EF92B4
:100F7000FF920F931F93CF93DF937C01162FC72F00
:100F8000FC01D281058102950F700E94930E882387
:100F9000B9F0DD23A9F08C2F807F803421F080E22E
:100FA000810F883068F080917F0282FD09C082E065
:100FB0000E943C0F0E94930E91E0D82ED92601C0CA
:100FC000D12CCC2EC2948FE0C8228C2D90E08C3096
:100FD000910508F093C1FC01EA5AFF4F0C94042ECE
:100FE0008C2F807FCF70882311F0C295C07FDD23C6
:100FF00099F0CC2309F46EC180E2810F883010F0A3
:10100000111104C08C2F0E949D0E03C08C2F0E94D2
:10101000AD0E0E94DC0E5EC1812F0E942807CC23FA
:1010200009F46CC180E2810F883038F1112329F175
:101030008C2F0E94B30E24C08C2F807FCF70803203
:1010400011F0C295C07F112319F01130A1F13DC0FC
:1010500080917F0282FF17C0DD2349F0CC2329F065
:101060008C2F0E949D0E0E94DC0E80E034C180E037
:101070000E942807CC2309F441C18C2F0E94A30EA3
:101080000E94DC0E3BC1DD2371F0002341F00130F2
:1010900031F40E94BD0E8C2B0E94C50E2FC10E9400
:1010A000BD0E8C2B1DC0002319F0013009F426C1A0
:1010B0000E94D20E25C0DD2321F0063008F01EC1AB
:1010C0000EC0053008F01AC11BC0DD2361F00023FB
:1010D00031F0F701858180FFFDC08F7085838C2FF3
:1010E0000E94A7070BC1002359F0193309F003C16F
:1010F000FFEF27EE83E0F15020408040E1F7F9C098
:101100008C2F0E94AE07FAC08C2F8695869583702F
:1011100019F0813061F0F2C0DD2321F0812F9C2F86
:10112000937002C080E090E00E940825EFC0DD23AC
:1011300021F0812F9C2F937002C080E090E00E94EC
:101140001E25E4C08C2F837079F5D111DBC0412FAF
:10115000429546954770440F440F212F2F70042E5F
:1011600001C0220F0A94EAF714FF08C08FE090E054
:1011700001C0880F4A95EAF7809501C080E0C695C6
:10118000C695C370822BC23049F058F4C13019F0B3
:101190000E94630AB7C00E945E0AB4C00E94680A37
:1011A000B1C00E945C0AAEC0DD2319F08C2F8170A3
:1011B00001C08695882309F4A5C0412F4295469524
:1011C0004770440F440F212F2F70042E01C0220FAF
:1011D0000A94EAF714FF08C08FE090E001C0880F7E
:1011E0004A95EAF7809501C080E0C695C695C37020
:1011F000822BC23049F058F4C13019F00E94A70A7E
:1012000081C00E94A20A7EC00E94AC0A7BC00E94DC
:101210006F0A78C0CF70DD2339F08C2F0E94800ACE
:10122000812F0E94A7076EC0812F0E94AE078C2FCE
:101230000E948B0A67C0123F21F128F4103F41F051
:10124000113FC1F043C0133F19F1143F79F03EC084
:10125000DD2341F0053008F051C08C2F8F710E94C2
:10126000970A4CC0063008F049C0F7CF80917F0242
:1012700082FF18C0DD2339F08C2F8F710E94800A05
:101280003DC0DD23C9F38C2F8F710E948B0A36C0BD
:10129000DD2329F08C2F8F710E94780A2FC00E94C5
:1012A000750A2CC0DD2349F0CF718C2F0E94800A73
:1012B00063E08C2F0E94210F21C081E00E943C0F2F
:1012C0000230E0F082E00E943C0F18C0DD2331F0D4
:1012D000002391F2812F0E94860610C0002399F20C
:1012E000193349F49FEFE7EEF3E09150E040F0400E
:1012F000E1F700C00000812F0E94280788EF8C0DC5
:10130000843020F40E94F1240E941E06DD20C9F0E2
:101310000E948F0E80FD15C0F70112820E94890E77
:101320000E94800AC7010E94C2090E94890EDF91B3
:10133000CF911F910F91FF90EF90DF90CF900C9481
:101340008B0ADF91CF911F910F91FF90EF90DF906B
:10135000CF9008950F931F93CF93DF93EC01688193
:1013600079818A810E94410B8C010E94B10A0E94FE
:10137000500AB801CE010E94B507DF91CF911F91AD
:101380000F910895CF93DF93EC01988189812B8190
:101390003C81232B31F08F3F31F481E09F3F19F4E2
:1013A00003C081E001C080E080FD1DC0CE010E942D
:1013B000D504811110C00E94930E8823A1F08A8168
:1013C000882389F080917F0282FD0DC082E0DF9149
:1013D000CF910C943C0FCE010E94AA09CE01DF915F
:1013E000CF910C948F04DF91CF91089580E090E02D
:1013F0000E94082580E090E00E941E250E94BA0EFF
:101400000C94DC0E80910201909103010E947A25D8
:101410000C94F6090E94AA0E0C94020A92959F70F1
:10142000963079F010F4925001C09A50923068F4DE
:10143000803F69F018F4883E40F409C0843F29F4E5
:1014400006C0883E20F0813F11F080E0089581E0E1
:101450000895FC01808191810E94360B0E940E0A42
:101460000895CF93DF9300D000D01F92CDB7DEB7A1
:101470000F900F900F900F900F90DF91CF910895E4
:10148000CF93DF9300D000D000D0CDB7DEB7269643
:101490000FB6F894DEBF0FBECDBFDF91CF91089598
:1014A000089508950C94510A0C94520A0E94540A0B
:1014B0008093F0010C94F6090C94560A9091F00177
:1014C000892B0C94560A9091F00189230C94560AAA
:1014D0009091F00189270C94560A0C94510A0E94AD
:1014E0006D0A8093EF010C94F60980E00C946F0A6A
:1014F00091E001C0990F8A95EAF7892F0C946F0A41
:1015000021E030E001C0220F8A95EAF78091EF01D7
:10151000822B0C946F0A21E030E001C0220F8A95E3
:10152000EAF720958091EF0182230C946F0A21E065
:1015300030E001C0220F8A95EAF78091EF018227FF
:101540000C946F0A9091EF01892B0C946F0A909183
:10155000EF0189230C946F0A9091EF0189270C9475
:101560006F0A08952EE0929F800D1124E82FE695D2
:10157000E695E695877051E001C0550F8A95EAF728
:1015800083E0E89FF0011124EC52FE4F20E030E0B0
:1015900070E04081CB01022E02C0969587950A9497
:1015A000E2F78170819584278523842781932F5FBB
:1015B0003F4F2330310569F708952EE0929F800D4B
:1015C0001124682F669566956695982F977083E02D
:1015D000689FB001112440E050E080E0FB01E40F7F
:1015E000F51FEC52FE4F208130E0092E02C03695E7
:1015F00027950A94E2F721703327042E01C0220FA9
:101600000A94EAF7822B4F5F5F4F4330510531F761
:101610000895CF92DF92FF920F931F93CF93DF93A2
:101620006C010091EF018091F001082BC7E0D0E040
:1016300010E0C8010C2E02C0959587950A94E2F738
:1016400080FD04C02197A8F7F12C07C0FC2EB6013D
:101650008C2F0E9425120197A9F38F2DDF91CF9136
:101660001F910F91FF90DF90CF900895CF93DF935C
:10167000EC010E94090BBE010E942512DF91CF915F
:1016800008951F93CF93DF93EB019091D30199239A
:1016900021F0CB010E94360B13C0882349F0CB0107
:1016A0000E94090B182F682FCE010E94B20A04C0B5
:1016B000CB010E94DD0A182FBE01812F0E94251246
:1016C000DF91CF911F9108951F93CF93DF93C09126
:1016D000F10116E08091F201C81799F0D0E01C9F4B
:1016E000F0011D9FF00D1124ED50FE4F40815181FE
:1016F00062817381848195810E94400A2196C7701E
:10170000E9CFDF91CF911F9108954091230250912D
:101710002402609125027091260280912702909107
:1017200028020C94400AEF92FF920F931F93CF93DD
:10173000DF938091280282958F7009F065C08091B7
:101740002502882309F460C08091F101F090F20134
:1017500010912302009124026091260270912702C9
:1017600091E01F3F09F090E0C0910001D09101018C
:10177000292F96E0E92E8F1509F446C061157105F1
:1017800021F00F3F21F030E003C031E001C0322FE3
:1017900090E030FD36C0E89EF001E99EF00D112486
:1017A000DF01AD50BE4F11963C911197301329C007
:1017B0003C91311326C012963C911297311121C0F1
:1017C00013964D915C911497461B570B4C175D0770
:1017D000C0F4809128028F70806180932802E850C5
:1017E000FE4F80818F708061808383E292E00E944F
:1017F000C209DF91CF911F910F91FF90EF900C9450
:10180000640B01968770B7CFDF91CF911F910F9135
:10181000FF90EF9008959F92AF92BF92CF92DF9288
:10182000EF92FF920F931F93CF93DF93CDB7DEB765
:1018300061970FB6F894DEBF0FBECDBF8C0185E077
:10184000F801DE011D9601900D928A95E1F7D8010D
:101850001296EC9090912302E091240220912602AE
:10186000309127022115310531F0EF3F31F481E04D
:101870009F3F19F403C081E001C080E0B82FB17030
:101880009B2E80FD47C1D8014C9111965C91119718
:101890001396AD90BC90149783E2C82E82E0D82EA8
:1018A000F0902502B501621B730B2091000130916D
:1018B0000101FF2009F4D9C0809128026217730743
:1018C00008F095C0282F207F09F052C05E1313C086
:1018D000491311C0FE2CE1100EC08F7080618093FF
:1018E00028020E94850BC6010E94C209809128022D
:1018F000F80185834DC1AB2831F05F3F31F481E0C1
:101900004F3F19F403C081E001C080E080FD03C0B7
:1019100081E08E2502C080E090E0F82FF170FF2E6C
:1019200080FF1CC08091F1012091F20136E0821706
:1019300009F40BC190E0389FF001399FF00D11249C
:10194000ED50FE4F6181561306C06081461303C0FF
:101950006281E61203C001968770E9CFFE2CEE206B
:1019600009F416C18091280281608093280254C036
:101970005E1306C0491304C0E11002C0F80199C00B
:10198000C8010E94290A882361F1EE2051F12091BB
:101990002802822F82958F7090E0029774F08091D8
:1019A00023029091240298878F831986BB86AA868A
:1019B0002C87CE0107960E94C20986E0F801A3E2B7
:1019C000B2E001900D928A95E1F70E94930B0E947C
:1019D000850B0AC05E1711F1C8010E94290A811106
:1019E0002CC0C8010E94C209FF24F394D1C0282F43
:1019F000207F81F77A2DB98AA88A6E2D89890E9465
:101A0000310A83E292E00E94C20986E0D6011D926B
:101A10008A95E9F70E94850BF12CBAC04913DCCFF7
:101A2000E110DACFF8018583C8010E94C20986E07F
:101A3000D6011D928A95E9F7ABC0EE2091F2209174
:101A40002802822F82958F7090E002970CF4B5CF18
:101A500080912302909124029A8389831B82BD8204
:101A6000AC822E83CE010196A6CF6217730708F0D1
:101A700044C0FE2CEE2009F4B4CF5E1330C04913ED
:101A80002EC02091280220FD21C0822F82958F70C8
:101A9000482F50E041155105C9F0F80125834F301A
:101AA000510541F08F5F982F9295907F822F8F7014
:101AB000892B8583C8010E94C20986E0F801A3E250
:101AC000B2E001900D928A95E1F73CC086E0F80102
:101AD000A3E2B2E001900D928A95E1F759C0C801E6
:101AE0000E94290A811169CF809128028160809328
:101AF0002802C8010E94C2094BC07A2DB98AA88A5F
:101B00006E2D89890E94310A86E0D6011D928A9540
:101B1000E9F718C0EE2009F464CFC8010E94290A31
:101B2000F82E882309F45DCF86E0F801A3E2B2E045
:101B300001900D928A95E1F783E292E00E9480067F
:101B40000E94930B0E94850B23C04D875E878D8575
:101B50009E850E94360B292F22952F70223028F463
:101B60009F7039F0811105C00BC0243028F49F709C
:101B700049F4805E883020F0C8010E94C2099F2C81
:101B8000F92C06C0D80115969C91907F91F7F8CF5B
:101B90008F2D61960FB6F894DEBF0FBECDBFDF91DB
:101BA000CF911F910F91FF90EF90DF90CF90BF905A
:101BB000AF909F9008951F93CF93DF93CDB7DEB77B
:101BC0002C970FB6F894DEBF0FBECDBF4F8358875A
:101BD00069877A878B879C87CE0107960E940B0CBA
:101BE0008823D1F09F8188852A853B85232B31F07E
:101BF0008F3F31F481E09F3F19F403C081E001C0C1
:101C000080E080FD47C04F81588569857A858B8546
:101C10009C850E94400A3EC086E0FE013796DE01A8
:101C2000119601900D928A95E1F7FF81E8856A850A
:101C30007B856115710531F0EF3F31F481E0FF3FA5
:101C400019F403C081E001C080E080FD23C0209131
:101C5000F20130E0C9010196877099274091F101A6
:101C600050E084179507F1F1F983EA837D836C8353
:101C700096E0929FD001939FB00D1124AD50BE4FBE
:101C8000FE01319601900D929A95E1F78093F20151
:101C90000E94640B16E08091F1019091F201891786
:101CA00071F1189FC00111248D509E4F0E940B0CA2
:101CB000882329F1E091F1011E9FF0011124ED50DC
:101CC000FE4F4081518162817381848195810E94A0
:101CD000400A8091F10190E00196877099278093E6
:101CE000F101D9CF0E940A0A1092F2011092F1017B
:101CF000E3E2F2E086E0DF011D928A95E9F72C9697
:101D00000FB6F894DEBF0FBECDBFDF91CF911F910C
:101D100008958091310285958595859508958091E6
:101D200031028770089590913102977081E009F433
:101D300080E0089580913C02089590913C02892BA7
:101D400080933C020895809590913C028923809372
:101D50003C02089510923C02089590913B02892B19
:101D600080933B020895809590913B028923809354
:101D70003B02089510923B0208958091320208952B
:101D800008950C94C00E0C94C10E90917F0292FDA8
:101D900008C090913202981721F0809332020C947F
:101DA000C30E089580913202882329F010923202E6
:101DB00080E00C94C30E0895CF93DF93E09102016D
:101DC000F091030180913C028083E0910201F09147
:101DD0000301908180913B02892B808380913202A4
:101DE000882381F0E0910201F09103019081892B19
:101DF000808380910201909103010E94342581111A
:101E00000E94D20EC0910201D091030148E050E03F
:101E100069E272E0CE010E944F2E892B69F088E0C2
:101E2000FE01A9E2B2E001900D928A95E1F7CE01A0
:101E3000DF91CF910C94FD24DF91CF9108950C9404
:101E4000C00E90917F0292FD10C098E0899F900192
:101E50001124262B209331020E94800A80913102A6
:101E60008595859585950C941F0F0C94800A10928A
:101E7000310280E00C941F0F209131028095822363
:101E800080933102982F977099F430E0482F082EF4
:101E9000000C550B2417350759F090917F0292FDE5
:101EA00007C08595859585950E948B0A0C94370F00
:101EB000089590917F0292FB222720F9281769F05C
:101EC00080FB92F990937F0280917E0290917F0235
:101ED0000E94A70F82E00C943C0F089580917F022E
:101EE00082FB882780F991E089270C94590F81E0C3
:101EF0000C94590F80E00C94590F6FEF7FEF80E046
:101F000090E00C948E2E80E090E00E946A2E893E34
:101F10009E4F11F40C942D1F80E0089582E090E014
:101F20000C945C2E83E090E00C945C2ECF9384E0C4
:101F300090E00E945C2EC82F82E290E00E945C2E0E
:101F40002C2F30E0A901582BCA01CF910895CF93CF
:101F5000C92F682F84E090E00E94702E6C2F82E2DF
:101F600090E0CF910C94702EAB01BC018FE090E01B
:101F70000C94822EAB01BC0183E190E00C94822E84
:101F800060E070E0CB010C94BA0F60E070E0CB0130
:101F90000E94B40F0C94C00F69EE7EEF80E090E0D9
:101FA0000E948E2E60E082E090E00E94702E60E041
:101FB00083E090E00E94702E1092F00160E084E0D7
:101FC00090E00E94702E60E082E290E00E94702E0D
:101FD00060E085E090E00E94702E60E086E090E096
:101FE0000E94702E6FEF87E090E00E94702E40E01C
:101FF00050E0BA0188E090E00E94822E60E08DE01F
:1020000090E00E94702E40E050E0BA0188E190E03C
:102010000E94822E60E087E190E00E94702E40E0F6
:1020200050E0BA018CE190E00E94822E60E070E006
:1020300080E290E00E948E2E40E050E0BA0188E1FC
:1020400090E00E94822E80E00E94461F0E94791F2D
:102050000C94C50F0C94CC0F682F8EE090E00C947C
:10206000702E0E94DC2560934B0270934C0280938B
:102070004D0290934E026093470270934802809302
:10208000490290934A02089585B7806885BF85B755
:10209000806885BF089581E008950C944B100895E1
:1020A0000C944F100C944F100C9452100C944F1031
:1020B0000C9456100C944F100E94441081E093E150
:1020C0000E94E7240E945A100C9458100E9450104D
:1020D0000C944F100E941B130E941D060C94EC1EC2
:1020E0000E94C7250E94881F0E94F2130E946A1056
:1020F0000E948A1C0E942A1A0E94EB1B0C94541006
:102100005F926F927F928F929F92AF92BF92CF9287
:10211000DF92EF92FF920F931F93CF93DF93CDB790
:10212000DEB72A970FB6F894DEBF0FBECDBF0E9470
:102130000714C82E81110E9431103DE3832E32E036
:10214000932E00E010E0502E802F0E9435135C018A
:10215000F401619071904F01682679266114710431
:10216000B1F40F5F1F4F0530110569F78FEF8983B9
:102170008A831B820E94D0258160782F9D838C8367
:1021800049815A816B818D810E9436063AC08091C7
:102190004F0281FD0E943E13D12CEE24E394F12CDA
:1021A000C3018E219F21892B29F10E944D10882384
:1021B000A9F0DE825F82AE20BF2081E0AB2809F467
:1021C00080E088870E94D0258160782F9A87898750
:1021D0004E815F8168858A850E943606000F111F37
:1021E000F801E35CFD4F80819181E826F926F182B8
:1021F000E08207C0D394EE0CFF1CFEE0DF12D0CFCC
:10220000B0CF81E0C11001C080E02A960FB6F894EB
:10221000DEBF0FBECDBFDF91CF911F910F91FF9019
:10222000EF90DF90CF90BF90AF909F908F907F9076
:102230006F905F9008950E9480100E946E1A0E9415
:10224000501E0C942B06CF93DF930E942A12EC01B0
:10225000811522E59207E8F5811531E5930708F02D
:10226000B6C0883E910528F5803E910508F0E9C08A
:10227000883A910570F4853A910508F07AC081306A
:10228000910509F473C008F4D9C0049708F0D9C0C7
:10229000D5C08F3B910508F0D1C0C85AD0E0CC0F13
:1022A000DD1FC95ADE4F0990D881C02DCE0194643C
:1022B000C9C0811540E5940708F069C0811550E454
:1022C000950708F060C09A9581159F4108F4B9C040
:1022D000B5C0811536E5930728F5811545E59407C6
:1022E00008F092C0811554E5950708F087C0AC014D
:1022F00043705527282F26952695C115D34508F0FC
:102300006CC081E090E002C0880F991F4A95E2F707
:1023100040E2249F90011124EC01C22BD32BCE016B
:102320009C6890C081152AE5920780F4811539E5F3
:10233000930708F072C0811548E5940708F47EC041
:10234000D82FCC27CE01806F906A7CC09056811523
:10235000904208F073C08D2F8F710E94BE12DD274E
:10236000D0628F71AE01582BCA016CC081E090E041
:1023700069C0C55AD0E0CB57DE4F8881C82FD0E066
:10238000CE0190645FC0DF70CE01906A5BC074E0E4
:10239000969587957A95E1F7282F23703C2F337017
:1023A00081E090E002C0880F991F3A95E2F79C689F
:1023B000AC01522B9A019C2F9F709695969550E2F6
:1023C000959FE0011124C9018C2B9D2B3BC0D82F78
:1023D000CC27CE01816F906A35C081E090E002C0C9
:1023E000880F991F4A95E2F750E2259F900111242A
:1023F000EC01C22BD32BCE019A6824C0D82FCC2756
:10240000CE01846F906A1EC00E94BE128F7190E050
:10241000D82FCC27CE01906215C08F700E94BE12BB
:1024200094E0D695C7959A95E1F7CF70D0E0DC2F70
:10243000CC27D0699E01282BC90104C080E090E020
:1024400001C0CE01DF91CF9108950E942F230E94F9
:10245000231108958238910569F1B0F48133910513
:1024600009F46DC048F48932910509F463C08A32D9
:10247000910509F469C008958533910509F455C0A3
:1024800089339105B9F00895833E910569F138F4D7
:10249000803E9105B1F0823E910509F10895863E96
:1024A0009105A9F1873E9105B9F1843E910509F0A6
:1024B00064C023C020917E0220FD4FC021FD4DC08D
:1024C000089580917E0280FD44C080917F0280FF4C
:1024D00044C080917E0284FD42C083EE4DC0809155
:1024E0007E0282FF38C0F5CF80917E0282FD33C02C
:1024F00080917F0280FD31C0ECCF80917F0281FF0F
:1025000032C080917E0284FD2AC087EE35C0809162
:102510007E0283FF26C0F5CF80917E0283FD21C01D
:1025200080917F0281FD1FC0ECCF80917E0285FDEE
:102530001CC01DC080917E0285FD19C016C080910F
:102540007E0286FD16C017C080917E0286FD13C0F4
:1025500010C089E311C082EE0FC080EE0DC080E094
:102560000BC086EE09C084EE07C089E205C085E392
:1025700003C08AE201C081E390E0089590917E0259
:1025800092FF0DC0282F2871283019F4877F8460AE
:1025900006C0282F2471243011F48B7F886093FFAC
:1025A0000DC0282F2871283119F4877E846106C058
:1025B000282F2471243111F48B7E886120917F02B1
:1025C00020FF0DC0382F3871383019F4877F8160B3
:1025D00006C0382F3171313011F48E7F886021FFB1
:1025E0000DC0282F2871283119F4877E816106C01B
:1025F000282F2171213111F48E7E886194FD877E10
:10260000089580E008950C947D0F0E9407148FE3D5
:102610009CE90197F1F700C000000E94071480E0D8
:102620000E94351380FF04C00E9403130C941D26E2
:1026300008950C9405130E94830F811102C00E941B
:102640002A100E948E0F80934F020E94960F909343
:102650007F0280937E020E9419130E94920F0E94B3
:102660005C0A8091EF010C946D0AE82FF0E0EE0F08
:10267000FF1FE657FD4F808191810895089580EAFC
:102680008A95F1F7089500C008950C943F130895BA
:102690000C9447130C944813F894E82FE295EF70CC
:1026A000F0E031A1282F2F7081E090E001C0880F69
:1026B0002A95EAF7982F9095932391A392A1892BBD
:1026C00082A3789408950F931F93CF93DF93C6E965
:1026D000D1E089918F3F11F00E944C1381E0CB39FA
:1026E000D807B9F7C8E8D1E006E911E089918F3F32
:1026F00011F00E944C130C171D07C1F7DF91CF9109
:102700001F910F910895BF92CF92DF92EF92FF92A7
:102710000F931F93CF93DF938C01C62FD0E0CE0190
:102720008A569E4F6C01FC0190819F3F09F450C076
:10273000B62EF894E92FE295EF70F0E081A19F703A
:1027400021E030E001C0220F9A95EAF7822B81A3A5
:1027500082A12095282322A378940E944313E8E8BD
:10276000F1E046E951E021E030E0E12CF12C61910B
:102770006F3F89F0A62FA295AF70B0E090968C9134
:1027800090E06F7002C0959587956A95E2F780FD9D
:1027900002C0C90102C080E090E0E82AF92A220FB5
:1027A000331F4E175F0719F7F60180818F3F11F035
:1027B0000E944C1361E0E114F10409F460E08B2DF8
:1027C0000E944513CC0FDD1FC00FD11FF982E88294
:1027D000DF91CF911F910F91FF90EF90DF90CF90FD
:1027E000BF9008950E9463138AE0EAE8F2E0DF01F7
:1027F000982F1D929A95E9F7E0E8F2E0DF011D922B
:102800008A95E9F785E00E9452140C94C104FF9266
:102810000F931F93CF93DF93CDB7DEB72A970FB6F1
:10282000F894DEBF0FBECDBF8E010F5F1F4F8AE051
:10283000F80111928A95E9F7F12C6F2DC8010E94D9
:102840008313F394F5E0FF12F8CF4AE050E0B801AB
:1028500080E892E00E944F2EFF24F394009709F441
:10286000F12C892B41F08AE0F801A0E8B2E0019058
:102870000D928A95E1F72F2D45E06AE872E080E835
:1028800092E00E9453140E94C3048F2D2A960FB623
:10289000F894DEBF0FBECDBFDF91CF911F910F9196
:1028A000FF9008950895FF920F931F93CF93DF93A6
:1028B000F82E092F162FD72FC42F222349F081E09D
:1028C000809352020E94D02590935102809350022F
:1028D000809152028823D9F0809150029091510248
:1028E0000E94E825059798F0EF2DF02FA12FBD2F1E
:1028F00080E090E04C2F50E08417950734F421914C
:1029000031912D933D930196F7CF10925202DF91B2
:10291000CF911F910F91FF9008950E94F0270E9480
:1029200070100C94FC270E9400280E941B110C942C
:102930001A280E94BB250E94D7270E945C100E9483
:102940008D140E9493140E946610FBCFEF92FF92A9
:102950000F931F93CF93DF938B01682F11110AC040
:10296000442329F0E82FF0E0ED53FA4F6491762FDD
:10297000862F75C0212F30E0E82FF0E0442321F0AE
:10298000ED53FA4FE491F0E046E0049FC0011124BA
:10299000CFEFD0E0BE010E94BA2D4BEA4603C00142
:1029A000479F900D1124800F911D800F911D982F2E
:1029B000990F890FAE01421B530B4E9FD0014F9FC1
:1029C000B00D5E9FB00D11249B2F189FA001112404
:1029D000452F55278E01041B150B0E9FA0010F9F3D
:1029E000500D1E9F500D11247E01E81AF108E29E41
:1029F0008001E39E100DF29E100D1124212F33272C
:102A0000C21BD30BCE9F9001CF9F300DDE9F300DA8
:102A1000112462307105A9F048F46115710569F05F
:102A200061307105C9F48B2F752F0DC064307105AD
:102A300081F058F06630710579F47E2F8B2F932F3B
:102A40000DC0832F7B2F9E2F09C08E2F7B2F952F9C
:102A500005C08E2F732F02C07E2F852F692FDF9127
:102A6000CF911F910F91FF90EF90089541E00E9448
:102A7000A614089508950E9436150895CF93DF9304
:102A8000762FE901682F842F0E943B157983688394
:102A90008A83DF91CF91089580919402282F269503
:102AA00030E02115310519F48170826005C02532AE
:102AB000310524F08170886480939402089588E041
:102AC00090E00C94642ECF92DF92EF92FF926B0114
:102AD0007C010E944C15B701A60188E090E0FF90B0
:102AE000EF90DF90CF900C94822E609194027091C1
:102AF000950280919602909197020C946315E4E9F7
:102B0000F2E083E0808311828FEF828383831482DB
:102B100060817181828193810C946315809194020C
:102B200080FF02C08695089580E0089590919802F4
:102B3000933018F49F5F90939802882351F060912E
:102B400094027091950280919602909197020C9454
:102B50006315089581E00C9496159091980299233D
:102B600019F0915090939802882351F0609194024B
:102B70007091950280919602909197020C94631542
:102B8000089581E00C94AD1580919802089580938A
:102B90009802662351F060919402709195028091A1
:102BA0009602909197020C946315089560E00C943E
:102BB000C71580919502089580919602089580919D
:102BC0009702089570E00C94021F609108018091B3
:102BD000940280FF0AC08091070123E0829FC00118
:102BE000112487569D4F0C94E21580910901909114
:102BF0000A01891780F7E82FF0E09F01220F331FA9
:102C0000E20FF31FE756FD4F1182108212828F5F91
:102C1000F0CF9091940290FF16C0909109012091FD
:102C20000A01921770F4E92FF0E0DF01AA0FBB1F31
:102C3000EA0FFB1FE756FD4F8183608342839F5F4E
:102C4000F0CF0C94E5150895CF93DF9300D01F9239
:102C5000CDB7DEB79091940290FF0AC09E012F5F1E
:102C60003F4F0E943E154B8169818A810E9409165F
:102C70000F900F900F90DF91CF910895CF93DF9336
:102C8000EC01EC81F0E0E250FC4F4491E4E9F2E029
:102C9000628181810E9424168C818F5F8C83DF91F9
:102CA000CF910895CF93DF93EC01E4E9F2E0438103
:102CB00062818C810E9424168C818F5F8C83DF91CE
:102CC000CF9108950F931F93CF93DF9300D01F925E
:102CD000CDB7DEB78C018091530281110AC09E01ED
:102CE0002F5F3F4F4FEF6FEF0E943E158A81809319
:102CF0005302F8018481813051F028F0823061F470
:102D0000409153020AC08091530240E007C0609195
:102D1000530240E080E003C040E080E060E00E94B9
:102D20000916F801848190E0019663E070E00E944A
:102D3000CE2D84830F900F900F90DF91CF911F9134
:102D40000F910895AF92BF92CF92DF92EF92FF92D0
:102D50000F931F93CF93DF9300D01F92CDB7DEB7B1
:102D6000182FF62E042FE22E9091940290FF6DC042
:102D7000E92FE695AE2FB0E0A556BE4F8C9180931B
:102D80005F029E7F923061F49E012F5F3F4F812F43
:102D90000E943E154B8169818A810E94091643C0B9
:102DA000823019F4009197023EC0863019F41091D8
:102DB000950239C08930D9F38931A9F5E9518E2FAF
:102DC0008170D82EE695F0E0E250FB4FA590B490CC
:102DD000C12CBB2460910B01C61618F52C2D30E0D8
:102DE000A29EC001A39E900DB29E900D112470E092
:102DF0000E94BA2D812FD11002C0860F01C0861B00
:102E000090910901290F311DA901440F551F240F6D
:102E1000351F27563D4F402F6F2D0E943E15C394FE
:102E2000D9CF0E94E51510939502F0929602009377
:102E30009702EE2051F0609194027091950280917A
:102E40009602909197020E9463150F900F900F9039
:102E5000DF91CF911F910F91FF90EF90DF90CF9076
:102E6000BF90AF900895E4E9F2E09181282F43816B
:102E7000628188E0890F0C94A21681E00C943317CC
:102E8000E4E9F2E09181282F4381628188EF890F84
:102E90000C94A21681E00C944017E4E9F2E0628100
:102EA00028E0620F08F46FEF282F438181810C9492
:102EB000A21681E00C944D17E4E9F2E0628128E06B
:102EC000621B08F460E0282F438181810C94A216D4
:102ED00081E00C945C17E4E9F2E0438128E0420FC2
:102EE00008F44FEF282F628181810C94A21681E0B3
:102EF0000C946B17E4E9F2E0438128E0421B08F4EC
:102F000040E0282F628181810C94A21681E00C940C
:102F10007A1720E00C94A216FF920F931F93CF9381
:102F2000DF93EC01F12C0FEF10E060910B01F6162E
:102F3000F0F4809109012F2D30E0280F311DC901D7
:102F4000880F991F280F391F27563D4F70E0C80181
:102F50000E94CE2D962F8C8140919702609196020F
:102F6000F99E800D11240E943E15F394DECF0E943D
:102F7000E5159A818C8190FF02C08F5F01C081505E
:102F80008C83DF91CF911F910F91FF900895BF9295
:102F9000CF92DF92EF92FF920F931F93CF93DF9325
:102FA000FC01828180FF02C00FEF01C001E010E050
:102FB00080910B01181708F040C080910901C12EC3
:102FC000D12CE601C80FD11DCE01880F991FC80F63
:102FD000D91FC756DD4F198218821A8234E0E32EBA
:102FE000F12CB12C809155028B0D813114F08F7032
:102FF00005C087FF03C090910B01890F082E000CBC
:10300000990BC816D90691F4809197028E9DA00164
:103010008F9D500D112455954795559547959E01C7
:1030200060919602809195020E943E15B00EF1E0EB
:10303000EF1AF108B9F61F5FBBCF0E94E51580912A
:103040005502013031F4811102C080910B01815091
:1030500007C090E0019660910B0170E00E94CE2DB8
:1030600080935502DF91CF911F910F91FF90EF90C8
:10307000DF90CF90BF900895CF93809109019091F8
:103080000A01891770F4E82FF0E09F01220F331F27
:10309000E20FF31FE756FD4F1182108212828F5FFD
:1030A000F0CFC0E060910B01C617C0F5EC2FF0E047
:1030B00070E0CF010E94CE2D20910901820F209156
:1030C0005402022E000C330B90E0E217F307CCF011
:1030D00020910601022E000C330B2E173F078CF0B7
:1030E0009C01220F331F820F931F9C0127563D4FD7
:1030F0004091970260919602809195020E943E1540
:103100000BC0FC01EE0FFF1F8E0F9F1FFC01E75647
:10311000FD4F118210821282CF5FC4CF0E94E5154D
:103120002091050180915402820F80935402909166
:103130000601920F9093060119165CF4082E000CFC
:10314000990B40910B0150E04150510984179507AC
:103150001CF0219520930501CF9108958F929F92A5
:10316000AF92BF92CF92DF92EF92FF920F931F9395
:10317000CF93DF938C01FC014481C42FD0E09E01EA
:10318000DE010E94192E9B01AC010E942F2E6B01C3
:103190007C01E0E2F0E0EC1BFD0BA5E5B0E09B015B
:1031A000AC010E942F2E4B015C019F01DF010E94A8
:1031B000112E9B01AC010E943A2E9B01AC012C0DFB
:1031C0003D1D4E1D5F1DC501B4010E94E22DC22FA1
:1031D000D22F2A3228F4F3E02F9F900111240DC042
:1031E00025E530E02C1B3109C901880F991F280FF4
:1031F000391F37FF02C02F5F3F4F35952795C22FEC
:10320000C095F12C85E5E82EED1A80910B01F8169A
:10321000C8F4F1FC02C08E2D01C08D2F90910901E0
:103220002F2D30E0290F311DA901440F551F240F08
:10323000351F27563D4F4C2F609196020E943E1538
:10324000F394E3CF0E94E515F8018481811102C057
:1032500091E003C0803219F49FEF909304019091A4
:103260000401890FF8018483DF91CF911F910F91A1
:10327000FF90EF90DF90CF90BF90AF909F908F9096
:1032800008950F931F93CF93DF93EC0100E010E0BC
:1032900080910B01282F30E00217130724F590913D
:1032A00009019801290F311DA901440F551F240F51
:1032B000351F27563D4F869590E04C81081719071A
:1032C0001CF4442331F002C0411103C04091970225
:1032D00001C040E060919602809195020E943E15E7
:1032E0000F5F1F4FD5CF0E94E5158C8190E00196AE
:1032F000817099278C83DF91CF911F910F91089551
:10330000E4E9F2E080818E7F808360817181828137
:1033100093810E946315109260022FEF80E792E084
:10332000215080409040E1F700C000000C94E5156A
:10333000E4E9F2E080818E7F8083109260022FEFBB
:1033400080E792E0215080409040E1F700C000000B
:103350000C94E51560919402669570E04BE050E0A6
:103360008CE091E00E94422E892B19F481E0809339
:1033700060020E94D02590935702809356020895D0
:103380009091940290FF35C09170811102C09260BB
:1033900006C0853210F0986402C0880F982B909375
:1033A0009402662351F0609194027091950280918D
:1033B0009602909197020E9463156091940266951F
:1033C00070E04BE050E08CE091E00E94422E892BAF
:1033D00019F01092600202C00E94AA1981E0809345
:1033E00059024091970260919602809195020C9447
:1033F00089170895682F90919402969581E0890F1E
:10340000853208F081E00C94C01981E00C94FA191F
:10341000682F9091940296958FEF890F09F484E2BA
:103420000C94C01981E00C94081A61E00C94C01946
:10343000E4E9F2E080818160808386950C94151A1E
:103440008091940280FD0C9480190C94181A60E00D
:103450000C94C01980915E0281112EC00E94830FCE
:10346000811104C00E942A100E947F150E945F15DE
:1034700060939402709395028093960290939702C2
:103480006E7F61F40E947F150E945F156093940225
:103490007093950280939602909397020E944C1528
:1034A000109260028091940280FF03C086950E9472
:1034B000271A81E080935E020895E4E9F2E08081BA
:1034C0008160808386950C94271A10925D0280910A
:1034D0005C0281110E945D1A0C94AA190F931F932C
:1034E000CF93DF9380916002882309F485C0809197
:1034F0005F02E0919402E695E81BE0935802823067
:1035000049F4F0E0E650FC4FE491CE2FD0E00EE31A
:1035100016E149C0863049F4F0E0E950FC4FE491EF
:10352000CE2FD0E002E516E13EC0893051F4E69599
:10353000F0E0EC50FC4FE491CE2FD0E00CE817E126
:1035400032C08F3051F4E695F0E0EF50FC4FE4913B
:10355000CE2FD0E007EC17E126C0853149F4F0E02A
:10356000E251FC4FE491CE2FD0E00CE318E11BC0F8
:10357000883181F0833239F4ECEEF3E0C591D491D7
:1035800002E616E110C0843251F4C4EFD1E001E448
:1035900019E109C0C8E2D0E00EEA18E104C0C0EDAC
:1035A000D7E00AE315E180915902882361F0109277
:1035B00059020E94D0259093570280935602109290
:1035C0005B0210925A020E94D025E0915602F091BF
:1035D00057028E1B9F0B8F3F9F4770F4EC0FFD1F10
:1035E000F0935702E093560286E592E0F801DF91EE
:1035F000CF911F910F910994DF91CF911F910F915E
:103600000895882311F0FA0101C0FB010994CF93BA
:10361000DF93C82FD62F0E948E158C1740F00E9482
:103620008E158D1720F4DF91CF910C94051A8C2FF5
:10363000DF91CF910C94151A1F93CF93DF93FB0169
:1036400012811111C3C0EC010E949A0E8272CC3C0F
:10365000FCE5DF0709F49AC0A8F5C63CECE5DE07F7
:1036600009F476C0A8F4C33C9CE5D90709F45FC00F
:1036700028F4C23CDC4509F457C054C0C43C9CE566
:10368000D90709F459C0C53CDC4509F45CC04AC0FF
:10369000C93CFCE5DF0709F46AC050F4C73CECE51F
:1036A000DE0709F45AC0C83CDC4509F45BC03AC0E7
:1036B000CA3C9CE5D90709F45FC0CB3CDC4509F462
:1036C00060C030C0C13DFCE5DF0709F46FC088F47D
:1036D000CE3C9CE5D90709F460C008F45CC0CF3C3F
:1036E000FCE5DF0709F45CC0C03DDC4509F45BC0C4
:1036F00019C0C43D9CE5D90709F460C050F4C23D2F
:10370000FCE5DF0709F455C0C33DDC4509F454C0AE
:1037100009C0C53D9CE5D90709F455C0CD35DD4547
:1037200009F454C011E052C00E94201A4FC042E177
:103730005AE165E07AE104C045E05AE162E17AE1EC
:103740000E94011B43C04AE457E16DE377E1F8CFE3
:103750004DE357E16AE477E1F3CF48E657E169E5E5
:1037600077E1EECF49E557E168E677E1E9CF46E852
:1037700057E167E777E1E4CF47E757E166E877E1AC
:10378000DFCF41EC55E16AEA75E1DACF4AEA55E16B
:1037900061EC75E1D5CF81E017C065E082E010C033
:1037A00068E086E00DC06EE089E00AC064E18FE069
:1037B00007C067E185E104C088E106C062E289E1F3
:1037C0000E94071B03C083E20E94151A812FDF911C
:1037D000CF911F910895E1E8F0E0808188608083B7
:1037E0008081816080838FB7F89420ED33E030933F
:1037F0008900209388008FBF0895EFE6F0E0808174
:10380000826080830895EFE6F0E080818D7F808381
:1038100008951F920F920FB60F9211242F933F938A
:103820004F935F936F937F938F939F93AF93BF93C8
:10383000EF93FF93809161029091620201969093C1
:10384000620280936102811103C082E00E941E0621
:10385000E0916202E695E695F0E0ED5FFA4FE491C3
:10386000809161028E1303C080E00E941E06FF91CA
:10387000EF91BF91AF919F918F917F916F915F91E8
:103880004F913F912F910F900FBE0F901F90189561
:1038900086E090E00C945C2E682F86E090E00C941B
:1038A000702E8091C9020C944C1C8091C9028470C6
:1038B00089618093C9020C944C1C8091C902869541
:1038C0008695869508958091C90281FD07C0826022
:1038D0008093C9020E944C1C0C94511E0895809143
:1038E000C90281FF07C08D7F8093C9020E944C1CD2
:1038F0000C945D1E08958091C90281FD0C946F1C8B
:103900000C94631C8091C902869581700895809102
:10391000170108950E94830F811104C00E942A108C
:103920000E94551C0E94481C8093C902282F26958E
:103930002695269530E02430310524F08770886183
:103940008093C9028091C90280FF04C08695869544
:10395000869501C080E00C941E1E2091C902822F22
:10396000869586958695482F50E04330510554F44E
:103970008F5F982F990F990F990F822F8770892B3E
:103980008093C9028091C90281608093C9020E941C
:103990004C1C8091C9028695869586950C941E1EB6
:1039A0008091C902982F969596959695A1F0915E73
:1039B000990F990F990F8770892B8093C902887F7F
:1039C00091E009F490E08091C90290FB80F9809326
:1039D000C9020E944C1C8091C902869586958695E5
:1039E0000C941E1E8091C90280FD13C081608093DB
:1039F000C902813019F489E08093C9028091C9021B
:103A00000E944C1C8091C9028695869586950C94DF
:103A10001E1E08958091C90280FF08C08E7F80938A
:103A2000C9020E944C1C80E00C941E1E08958091D7
:103A3000C90280FD0C940A1D0C94F21C9091C902DD
:103A4000892F8695869586958F5F8F7197708430C4
:103A500038F4880F880F880F892B8093C90202C021
:103A60009093C9028091C902887F91E009F490E0A7
:103A70008091C90290FB80F98093C9020E944C1C7E
:103A80008091C9028695869586950C941E1E843079
:103A900008F083E09091C9029770282F220F220F1F
:103AA000220F922B9093C902987F21E009F420E025
:103AB0009091C90220FB90F99093C9020C941E1EAC
:103AC0000E94471D8091C9020C944C1CFC01DB0133
:103AD00012968C918823F9F0EB5BFC45E730F105F9
:103AE000D8F4EE59FF4F0C94042E83E001C080E01F
:103AF0000E94601D80E008950E94D01CFBCF0E94B0
:103B0000AD1CF8CF0E94171DF5CF0E941E1DF2CFED
:103B10000E947B1CEFCF81E00895279A2F9808958B
:103B20002F9808958F929F92AF92BF92CF92DF927B
:103B3000EF92FF920F931F93CF93DF938C018091AD
:103B40008600909187006CE070E00E94BA2D6017AB
:103B5000710730F0C80169E070E00E94BA2D60C0C2
:103B60008091860090918700E0908600F090870019
:103B7000E0918600F0918700C6E0D0E0BE010E948F
:103B8000BA2D20E030E0060F171F211D311D48011E
:103B9000590185E0880C991CAA1CBB1C8A95D1F799
:103BA000C701BE010E94BA2D6F01E12CF12CA701C3
:103BB0009601260F371F411D511DC501B4010E94FA
:103BC000E22D69017A01E0918600F0918700CA0137
:103BD000B9010E94AA2D9B01AC01DF010E942F2E8A
:103BE0009B01AC01C701B6010E94AA2DDC01CB01EB
:103BF0002FE0B695A795979587952A95D1F70091CF
:103C000086001091870020E030E0081719072A0786
:103C10003B0728F46091860070918700CB01BC01BE
:103C2000CB01DF91CF911F910F91FF90EF90DF902B
:103C3000CF90BF90AF909F908F900895CF93C82F53
:103C4000843050F4811109C080918000877F809377
:103C500080000E94901D06C0C3E0809180008860B3
:103C600080938000A0918600B09187002C2F30E0D7
:103C70000E94192E23E030E040E050E00E94E22D47
:103C8000B42FA32F922F8827892F9A2FAB2FBB27D2
:103C90000E94921D90938D0080938C00CF91089587
:103CA0000895109264021092630210926502EFE68A
:103CB000F0E08081816080830895EFE6F0E080810C
:103CC0008E7F80830E945D1C0C941E1E1F920F929B
:103CD0000FB60F9211240F931F932F933F934F937F
:103CE0005F936F937F938F939F93AF93BF93CF9384
:103CF000EF93FF938091180191E0980F823019F0B3
:103D00009093180155C081E0809318010E94871C90
:103D1000C82F00916302109164020F5F1F4F0E9431
:103D2000871C28E7829FB0011124C8010E94BA2D88
:103D3000909364028093630228E7C29FB00111242C
:103D4000660F672F661F770B71950E94BA2D6F77EC
:103D500080916502823019F4603451F404C08130DE
:103D600039F46F3729F480916F008E7F80936F0054
:103D7000E62FF0E0ED5BFA4FC491009186001091C0
:103D800087000E945D1C282FC09FC001C19F900D1D
:103D900011246DEF72E00E94BA2D269FC001279F6B
:103DA000900D11240E94921D90938D0080938C00A1
:103DB000FF91EF91CF91BF91AF919F918F917F91A3
:103DC0006F915F914F913F912F911F910F910F90A4
:103DD0000FBE0F901F9018950E948D1D8AE0809352
:103DE000800089E1809381008FEF9FEF909387009F
:103DF000809386000E948A1C0E94821C81110C9470
:103E0000511E0895209A25B12E7F35B131604FB7EC
:103E1000F894FC01CB01880F991F680F791F6E0F72
:103E20007F1FE617F70789F0819198E035B9000008
:103E300000C087FF25B9880F000000C000C000C087
:103E400025B900C09A9591F7ECCF4FBF8FE594E06C
:103E50000197F1F700C00000089583E290E00E940E
:103E60005C2E823281F484E290E00E945C2E8330EA
:103E700051F485E290E00E945C2E91E0813109F0DE
:103E800090E0892F01C080E081700895CF93C82F02
:103E9000811102C06FEF01C062E283E290E00E94F4
:103EA000702EC11102C06FEF01C063E084E290E0A8
:103EB0000E94702EC11102C06FEF01C061E185E266
:103EC00090E0CF910C94702E089586E290E00E94CD
:103ED0005C2E682F70E080E090E008950895CF9305
:103EE000C62F0E946E1F6C2F86E290E0CF910C943B
:103EF000702E80E00E94461F60E070E0CB010E94BF
:103F00006F1F0E94AA220E94892381E00C94461F01
:103F10000E94641F0E94651F0E946E1F0E942D1F39
:103F2000811102C00C94791F0895CF93FB01C281C7
:103F3000CC23E9F09C0122513F452031310520F48A
:103F400082510E9499230CC08031FFE59F0751F4F4
:103F500081E00E94800A43E062E081E00E94B804B0
:103F6000C0E018C081319F45A9F482E0F2CF8031D2
:103F7000EFE59E0711F481E004C081319F4549F4CB
:103F800082E00E948B0A43E062E081E00E94B80474
:103F900001C0C1E08C2FCF9108952FEFFC01208349
:103FA0000895CF93DF93EC018881893031F08A3016
:103FB00079F40E94821C89830BC00E945D1C2FEF44
:103FC000829FC001112463E070E00E94BA2D6983D2
:103FD000DF91CF910895FC018081893019F08A30FA
:103FE00069F00895818123E0829FC00111246FEF61
:103FF00070E00E94BA2D862F0C94471D818181119B
:1040000002C00C946F1C0C94631CCF93DF93EC01E3
:104010008881813889F028F48038A1F40E94DF1566
:1040200010C0823861F0833869F40E94D915898301
:104030000E94DC158A8306C00E948E1502C00E9471
:10404000C4158983DF91CF910895CF93DF93EC015D
:1040500088818138B1F058F4803851F5D9810E94B7
:10406000DC15C82F0E94D9154D2F6C2F1DC082382A
:10407000B1F08338E9F40E94DF15482F6A81898105
:1040800013C089810E94271A8981811104C0DF91A0
:10409000CF910C949819DF91CF910C945D1A89817E
:1040A000DF91CF910C94D615DF91CF910C948917A5
:1040B000DF91CF910895DF92EF92FF920F931F93BC
:1040C000CF93DF93EC01D62E8C010F5F1F4FE88159
:1040D0008E2F90E0FC013197E331F10508F0A4C088
:1040E000E759FF4F0C94042E198289E060C0898142
:1040F000823039F0833061F0813029F50E94DC256F
:1041000002C00E94651F9A838B837C836D838EC05F
:104110007E0110E0812F0E943513F7019283838383
:104120001F5FF2E0EF0EF11C1530A1F77FC089810F
:10413000823049F46A817B818C819D810E940A2EA4
:104140000E946F1F73C06D2DCE010E94CD1F6EC0E7
:104150004B816A8189810E947C229C838D8366C009
:104160002C813D813227232732274B816A81898127
:104170000E9495225BC00E94AA2258C0C8010E94DA
:10418000EB1FC8010E94252051C0C8010E94D11F09
:10419000C8010E9405204AC00E94511C0E9475154A
:1041A00045C00E943C2324C00E943E2399838A83F9
:1041B0003DC06B8170E089819A81AE014C5F5F4F99
:1041C0009827892798270E94412330C06B8170E08F
:1041D00089819A81AE014C5F5F4F98278927982784
:1041E0000E94662323C00E94892320C00E94692266
:1041F00089831CC06B8170E089819A81AE014C5F1C
:104200005F4F9827892798270E94E9220FC06B816A
:1042100070E089819A81AE014C5F5F4F98278927B2
:1042200098270E940D2302C08FEF88836D2DCE0149
:10423000DF91CF911F910F91FF90EF90DF900C9441
:10424000A426CF93DF93EC01FB018281882309F43C
:104250003CC1C330FDE5DF0760F4CA3F9CE5D907E8
:1042600088F49E0122503C452431310508F02EC1CE
:1042700009C0C136EDE5DE0729F0C53AFDE5DF07E7
:1042800009F024C10E94960F90937F0280937E02D2
:10429000C1318CE5D80709F4C6C008F042C0C93066
:1042A000ECE5DE0709F49BC000F5C5308CE5D807C6
:1042B00009F485C078F4C330ECE5DE0709F478C072
:1042C00008F07AC0C230DC4509F0F5C080917E026A
:1042D0008160EFC0C7309CE5D90709F478C008F0C9
:1042E0007AC080917E028061E4C0CD30FCE5DF07BA
:1042F00009F487C058F4CB309CE5D90709F479C09C
:1043000008F07BC080917E0288606FC0CF30FCE5F2
:10431000DF0709F480C008F082C080917E02877FA9
:10432000C8C0CD3F9CE5D90709F471C000F5C5317F
:10433000FCE5DF0709F485C068F4C3319CE5D907C3
:1043400009F475C008F095C00E940A0A80917E02A7
:104350008F77AFC0CB3FFCE5DF07A9F108F054C071
:10436000CA3FDC4509F0A7C080917F0240C0C13040
:10437000EDE5DE0709F489C058F4CF3F8CE5D80796
:1043800009F45AC008F069C080917F0282602FC092
:10439000C136EDE5DE0709F47CC0C53AFDE5DF076F
:1043A00009F481C0C230DD4509F085C080E06EC0EF
:1043B00080917E0282607DC080917E0216C08091D5
:1043C0007E02886076C080917F0282604FC08091BB
:1043D0007E0280626EC080917E0280646AC00E940C
:1043E0000A0A80917E02806864C0846062C0816035
:1043F0003DC080917E028E7F5CC080917E028D7F69
:1044000058C080917E0216C080917F0218C08091B2
:104410007F028D7F2BC080917E028F7E4AC080916B
:104420007E028F7D46C080917E028F7B42C080914C
:104430007E02877F8B7F3DC080917F028D7F8E7F44
:1044400015C080917E0282FB222720F991E09227FD
:1044500090FB82F990FB83F92CC080917F02982F0A
:10446000909591708E7F892B90FB81F980937F02CC
:1044700022C00E940A0A80917E0287FB222720F92F
:1044800091E0922790FB87F914C081E00E942C10E4
:1044900012C080917E0284FB222720F991E09227AE
:1044A00090FB84F906C080917E02982F909590FB36
:1044B00080F980937E0280917E0290917F020E941B
:1044C000A70F0E940A0A80E001C081E0DF91CF912E
:1044D000089584E0089550E0440F551F2CE1629F39
:1044E000400D511D11249A016CE8869F200D311D4D
:1044F0001124C901879608950F931F93CF93DF93DB
:104500000E946B228C010E945C2EC82FD0E0DC2F11
:10451000CC27C80101960E945C2E9E01282BC90160
:10452000DF91CF911F910F9108950F931F93CF9318
:10453000DF93122F032F0E946B22EC01602F0E9449
:10454000702E612FCE010196DF91CF911F910F91B7
:104550000C94702EAF92BF92CF92DF92EF92FF92A7
:104560000F931F93CF93DF93A12CE12CF12CB12C4F
:1045700000E010E0C0E0D0E06701C00ED11EFE01F7
:10458000EE0FFF1FEC0DFD1DE45FFE4F25913491F2
:104590004C2F6B2D8A2D0E9495222196CE30D1056D
:1045A00071F7045E1F4FB39485E0B812E3CF8CE837
:1045B000E80EF11CA39484E0A812D9CFDF91CF912B
:1045C0001F910F91FF90EF90DF90CF90BF90AF9031
:1045D0000895EF92FF920F931F93CF93DF93EA0119
:1045E0007A01E60EF71E8C01C8018796CE15DF050D
:1045F00069F0003322E0120720F40E945C2E8883C9
:1046000001C0188221960F5F1F4FEECFDF91CF912F
:104610001F910F91FF90EF900895EF92FF920F93EB
:104620001F93CF93DF93EA017A01E60EF71E8C0108
:10463000C8018796CE15DF0559F0003322E0120736
:1046400018F468810E94702E21960F5F1F4FF0CFE3
:10465000DF91CF911F910F91FF90EF900895462F1A
:10466000843038F4753028F46E3018F4672F0C94C9
:104670007C2280E090E0089580E1089589EA91E04D
:104680000895EF92FF920F931F93CF93DF93EA0168
:104690007A01E60EF71E8C01C801895A9D4FCE158E
:1046A000DF0569F0093A21E0120720F40E945C2E30
:1046B000888301C0188221960F5F1F4FEDCFDF91D5
:1046C000CF911F910F91FF90EF900895EF92FF927D
:1046D0000F931F93CF93DF93EA017A01E60EF71E43
:1046E0008C01C801895A9D4FCE15DF0559F0093A52
:1046F00021E0120718F468810E94702E21960F5F46
:104700001F4FEFCFDF91CF911F910F91FF90EF904F
:104710000895CF93DF93C7E5D2E060E0CE010E9419
:10472000702E2196C11584E0D807B9F7DF91CF919B
:104730000895DF92EF92FF920F931F93CF93DF9331
:1047400000D000D0CDB7DEB7F82E8FE08F15E8F19E
:104750008FEF93E00E945C2E811137C007E512E0D5
:10476000FF2069F0011584E0180779F1C8010E9463
:104770005C2E811101C0FA940F5F1F4FF1CF198297
:104780001A821B821C82DD24D39478018FEFE81AF1
:10479000F80AC8010E945C2E89831A828823A9F036
:1047A0009FEF980F933058F48A83D9820E5F1F4F82
:1047B000C7010E945C2E8B83882339F07801CE01DB
:1047C00001960E9415068701E0CF0F900F900F9081
:1047D0000F90DF91CF911F910F91FF90EF90DF909D
:1047E0000895CF93DF9386319C4541F5EB010E94FC
:1047F0009A0E982F8A81209102013091030188231B
:1048000079F09A7A81E009F480E080936602911150
:1048100002C069E201C065E3C9010E9476250AC0B1
:1048200080916602811102C069E201C065E3C9019D
:104830000E9478250E94DC0E80E001C081E0DF91BB
:10484000CF9108950F931F93CF93DF93C42FD22F4F
:10485000FC0182818823C9F0409369020E94D0251F
:10486000909368028093670280E28C0F883008F092
:1048700057C0C77081E001C0880FCA95EAF7DF9181
:10488000CF911F910F910C94A70780916902481353
:1048900030C080916702909168020E94E825883CB0
:1048A000910538F510E21D0FCD17B9F080E28C0F9D
:1048B000883040F4C77081E001C0880FCA95EAF7DC
:1048C0000E94AE07183028F581E09D2F977001C037
:1048D000880F9A95EAF70E94A707802F0E949E07EB
:1048E0001830F0F4D77081E001C0880FDA95EAF74C
:1048F0000AC080E28C0F883098F4C77081E001C054
:10490000880FCA95EAF7DF91CF911F910F910C9410
:10491000AE07802FDF91CF911F910F910C949E07CE
:10492000DF91CF911F910F9108950F939C01CB01BF
:10493000233F4CE5340731F188F4283DFCE53F077F
:10494000D9F0293D4CE5340779F1273D3C45A9F5DF
:1049500006E221EE41EE67ED7CE52BC0253FFCE54C
:104960003F07E1F0A8F0263F3C4539F507E225EE88
:1049700046EE66EF7CE51DC007E225EE45EE68EDEC
:104980007CE517C006E221EE40EE63EF7CE511C046
:1049900007E225EE44EE64EF7CE50BC006E221EE73
:1049A00042EE65EF7CE505C008E221E045EE69EDE9
:1049B0007CE50E94222480E008C0FC0182818823DB
:1049C00019F01092690201C081E00F91089590934F
:1049D000D1018093D001089590936F0280936E026D
:1049E0000895E0916E02F0916F02309721F00190EE
:1049F000F081E02D099480E00895E0916E02F0913D
:104A00006F02309721F00280F381E02D0994089520
:104A100020916C0230916D022817390771F0909344
:104A20006D0280936C02E0916E02F0916F023097FC
:104A300021F00680F781E02D0994089520916A0203
:104A400030916B022817390771F090936B028093B5
:104A50006A02E0916E02F0916F02309721F00084BB
:104A6000F185E02D09940895FC01329697E080E0ED
:104A7000915029F021912223D9F38F5FF9CF089526
:104A8000662349F0FC01329608962191621729F0BD
:104A9000E817F907D1F780E0089581E008959C01B7
:104AA000FC0132969FEF80E04191461789F09F3FCD
:104AB00019F4411101C0982F8F5F8630A9F79F3FED
:104AC00039F0F901E90FF11D97FDFA956283089518
:104AD00008959C012A5F3F4FFC014281461301C0AB
:104AE0001282019682179307B9F708950C944F2507
:104AF0000C946925029626E0FC0111922A95E9F7AB
:104B0000089508950C94812583E0809370020C949D
:104B10008225811102C081E001C082E08093700291
:104B20000C9482250C94892581E0809370020C946A
:104B300082250C94942508950C949B250C949C2517
:104B40000C949B250C949B250C949B25CF930E9441
:104B5000A2250E9407140E94A025C0E08C2F0E946D
:104B60003513892B29F4CF5FC530C1F780E001C030
:104B700081E0CF91089508958091D202843011F0A0
:104B80000C943C0508950E940A0A0C943E0582E0AC
:104B900084BD93E095BD9AEF97BD80936E00089514
:104BA0002FB7F8948091CA029091CB02A091CC02C9
:104BB000B091CD022FBF08952FB7F8946091CA022B
:104BC0007091CB028091CC029091CD022FBF0895BD
:104BD0009C014FB7F8948091CA029091CB02A091AA
:104BE000CC02B091CD024FBF821B930B08957894F5
:104BF0001F920F920FB60F9211248F939F93AF9332
:104C0000BF938091CA029091CB02A091CC02B09147
:104C1000CD020196A11DB11D8093CA029093CB02D3
:104C2000A093CC02B093CD02BF91AF919F918F9191
:104C30000F900FBE0F901F90189581E08093E000B9
:104C400080E28093D8001092C9008FE19EE4019722
:104C5000F1F700C0000087E090EBDC018093DB02FD
:104C60009093DC02A093DD02B093DE029CE088E129
:104C70000FB6F894A895809360000FBE90936000E3
:104C8000FFCF80917C0208950895CF93DF9321E0B8
:104C90002093E9002FEF3091E800215035FD06C048
:104CA00035ED3A95F1F700002111F5CF2091E8009C
:104CB00025FF14C0EC0140E050E068E070E00E9485
:104CC000C1288091E8008E778093E80088E0FE019B
:104CD000A4E7B2E001900D928A95E1F7DF91CF91C0
:104CE00008958093710270937302609372028091B1
:104CF000D2028430F9F48093E9008FEF9091E800BC
:104D0000815095FD06C095ED9A95F1F7000081114F
:104D1000F5CF8091E80085FF0DC040E050E063E0F2
:104D200070E081E792E00E94C1288091E8008E77D0
:104D30008093E8000895BC0184E00C947126BC01C6
:104D400083E00C9471260895CF93603219F5209179
:104D5000D2022430F9F4C091E900CF703091EC0018
:104D6000232F217030FD20E8C22B22E02093E900A0
:104D70002091E80020FF0BC040E050E060E270E0CE
:104D80000E94C1288091E8008E778093E800CF7060
:104D9000C093E900CF9108958091D102811109C09B
:104DA0000E949D2A0E94FA2A8091E20084608093EA
:104DB000E20008951092D10208950C949925609113
:104DC000CE0281E0611101C080E00E9484250C9434
:104DD000FD1B9091D20281E0943009F080E0609157
:104DE000CE020E9489250E94031C0E94F1240C948B
:104DF0001E0642E061EC81E00E94162A42E261EC6C
:104E000084E00E94162A42E261EC82E00E94162AA7
:104E100042E260EC83E00E94162A9091D20281E087
:104E2000943009F080E06091CE020C94922580913C
:104E3000D402833009F463C030F4813071F08230E1
:104E400009F49CC008958A3009F488C08B3009F4B5
:104E50006EC0893009F0AAC020C08091D302813A87
:104E600009F0A4C08091E800877F8093E8008091DA
:104E7000D7029091D802892B21F468E084E792E070
:104E800003C060E080E090E070E00E9457298091CC
:104E9000E8008B778093E80008958091D3028132F7
:104EA00009F084C08091D7029091D802009719F040
:104EB000029709F07BC08091E800877F8093E8002B
:104EC0008091E80082FD05C08091D2028111F8CF67
:104ED0006DC02091F3008091F20090E0922B029738
:104EE00031F48091F100813011F0863021F480910D
:104EF000F10080937C028091E8008B7753C0809111
:104F0000D302813A09F052C08091D7029091D80221
:104F1000892B09F04BC08091E800877F8093E800DF
:104F20008091E80080FFFCCF8091250136C0809100
:104F3000D3028132D9F58091D7029091D802892B82
:104F4000A9F58091E800877F8093E8000E944B2AB2
:104F50008091D502809325010C940A0A8091D30296
:104F6000813221F58091E800877F8093E8000E94DC
:104F70004B2A8091D60280937D0208958091D302BE
:104F8000813AA1F48091E800877F8093E8008091C6
:104F9000E80080FFFCCF80917D028093F10080913A
:104FA000E8008E778093E8000C944B2A089584B72C
:104FB000877F84BF0FB6F894A895809160008861C0
:104FC00080936000109260000FBE90E080E80FB602
:104FD000F89480936100909361000FBE0C94942527
:104FE0000E949D2A0E94FA2AE2EEF0E0808184600D
:104FF000808378940C948F2D89E191E00C94EC24BB
:105000008091D2028530A9F48091D202853079F462
:105010000E94BC258091D0028823B1F30E94A6256E
:10502000882391F30E94AB280E940A0AEDCF0C94CA
:10503000C3250895CF93DF93CDB7DEB7A0970FB602
:10504000F894DEBF0FBECDBF8091D202843011F53F
:1050500083E08093E9008091E80082FF1BC080918B
:10506000E80085FF0AC040E050E060E270E0CE0159
:1050700001960E940C2991E001C090E08091E80027
:105080008B778093E800992329F060E2CE010196A6
:105090000E945B20A0960FB6F894DEBF0FBECDBF76
:1050A000DF91CF9108950C945528292F3327233071
:1050B0003105C9F060F42130310581F0223031052D
:1050C00009F041C08BE590E02BEF36E040C0213283
:1050D0003105E1F02232310531F135C082E190E055
:1050E00026E537E034C099278130910549F028F052
:1050F000029749F5E3ECF6E005C0E7EFF6E002C001
:10510000EDECF6E0849190E09F0121C063307105E1
:10511000D0F4660F771FFB01E753FE4F20813181EA
:1051200089E090E014C06330710568F4FB01EE0F74
:10513000FF1FED53FE4F20813181FB01E054FE4FF4
:10514000808190E004C080E090E020E030E0FA014F
:1051500031832083089580E189BD82E189BD09B44E
:1051600000FEFDCF8091D8008F7D8093D800809184
:10517000E00082608093E0008091E00081FDFCCF40
:105180000895CF92DF92EF92FF920F931F93CF93E8
:10519000DF93EC018B017A010E946A2A811133C0EE
:1051A000E114F10439F0F70180819181081B190B9A
:1051B000C80FD91FC12CD12C0115110519F18091EF
:1051C000E80085FD16C08091E8008E778093E800A6
:1051D000E114F10449F0F70180819181C80ED91ED4
:1051E000D182C08285E00FC00E946A2A882321F301
:1051F0000AC089918093F10001501109FFEFCF1A85
:10520000DF0ADACF80E0DF91CF911F910F91FF90FD
:10521000EF90DF90CF900895CF92DF92EF92FF92C0
:105220000F931F93CF93DF93EC018B017A010E94C0
:105230006A2A811133C0E114F10439F0F701808149
:105240009181081B190BC80FD91FC12CD12C011536
:10525000110519F18091E80085FD16C08091E800E4
:105260008B778093E800E114F10449F0F701808125
:105270009181C80ED91ED182C08285E00FC00E94E4
:105280006A2A882321F30AC08091F1008993015092
:105290001109FFEFCF1ADF0ADACF80E0DF91CF915B
:1052A0001F910F91FF90EF90DF90CF900895209184
:1052B000D9023091DA022617370748F061157105D7
:1052C00039F42091E8002E772093E80001C0B9015D
:1052D000FC0120E06115710579F18091D2028823EB
:1052E000F1F18530F1F18091E80083FD3CC08091BF
:1052F000E80082FD2EC08091E80080FFEBCF209176
:10530000F3008091F20090E0922B6115710551F04D
:105310008830910538F421912093F1006150710992
:105320000196F3CF21E0089709F020E08091E80092
:105330008E778093E800CECF2111CFCF0AC0809125
:10534000D202882361F0853061F08091E80083FD0E
:105350000AC08091E80082FFF2CF80E0089582E0E9
:10536000089583E0089581E008952091D902309155
:10537000DA022617370748F06115710539F42091D4
:10538000E8002E772093E80001C0B901FC0120E07D
:105390006115710591F18091D202882309F440C012
:1053A000853009F43FC08091E80083FD3DC08091C5
:1053B000E80082FD2FC08091E80080FFE9CF2091B6
:1053C000F3008091F20090E0922B6115710559F085
:1053D0008830910540F424912093F100319661507A
:1053E00071090196F2CF21E0089709F020E0809141
:1053F000E8008E778093E800CBCF2111CCCF0AC094
:105400008091D202882361F0853061F08091E800BC
:1054100083FD0AC08091E80082FFF2CF80E008950A
:1054200082E0089583E0089581E00895982F9730F1
:1054300068F59093E900981739F07091EC0020918D
:10544000ED005091F00003C0242F762F50E021FD95
:1054500002C09F5FECCF3091EB003E7F3093EB00BA
:105460003091ED003D7F3093ED003091EB003160E5
:105470003093EB007093EC002093ED005093F0001C
:105480002091EE0027FDE5CF80E008958F70809396
:10549000E90081E008958091D30287FF11C08091D7
:1054A000E80082FD05C08091D2028111F8CF11C0C1
:1054B0008091E8008B770BC08091D202882349F05D
:1054C0008091E80080FFF8CF8091E8008E7780938C
:1054D000E80008952091E4003091E50095E64091C0
:1054E000EC00842F817040FF23C08091E80080FD94
:1054F0001DC08091D202882399F0853099F0809167
:10550000EB0085FD11C04091E4005091E5002417A7
:10551000350729F3915011F09A01E1CF84E0089505
:1055200082E0089583E0089581E0089580E0089581
:105530004091E80042FFDDCF08950E940B2B0E94AE
:10554000132BE0EEF0E0808181608083E8EDF0E0F5
:1055500080818F77808319BCA7EDB0E08C918E7F1E
:105560008C9380818F7E80831092D10208950F9357
:105570001F93CF93DF930E940B2B0E94132BC8ED38
:10558000D0E088818F77888388818068888388814C
:105590008F7D888319BC1092D2021092CE02109295
:1055A000D0021092CF0200EE10E0F80180818B7FD4
:1055B000808388818160888342E060E080E00E948F
:1055C000162AE1EEF0E080818E7F8083E2EEF0E04B
:1055D000808181608083808188608083F801808100
:1055E0008E7F8083888180618883DF91CF911F9136
:1055F0000F910895E8EDF0E080818F7E8083E7EDE4
:10560000F0E080818160808384E082BF81E08093CC
:10561000D1020C94B72AE8EDF0E080818E7F808380
:105620001092E20008951092DA001092E1000895BD
:105630001F920F920FB60F9211242F933F934F9307
:105640005F936F937F938F939F93AF93BF93EF93EA
:10565000FF938091E10082FF0BC08091E20082FF06
:1056600007C08091E1008B7F8093E1000E948E2D26
:105670008091DA0080FF1FC08091D80080FF1BC09E
:105680008091DA008E7F8093DA008091D90080FFCC
:105690000DC080E189BD82E189BD09B400FEFDCF66
:1056A00081E08093D2020E94CC2605C019BC1092E2
:1056B000D2020E94DA268091E10080FF19C0809119
:1056C000E20080FF15C08091E2008E7F8093E200AF
:1056D0008091E20080618093E2008091D800806236
:1056E0008093D80019BC85E08093D2020E94DF2607
:1056F0008091E10084FF30C08091E20084FF2CC0E3
:1057000080E189BD82E189BD09B400FEFDCF8091B1
:10571000D8008F7D8093D8008091E1008F7E8093A8
:10572000E1008091E2008F7E8093E2008091E200B0
:1057300081608093E2008091CE02882311F084E0A2
:1057400007C08091E30087FD02C081E001C083E0D3
:105750008093D2020E94E9268091E10083FF29C054
:105760008091E20083FF25C08091E100877F8093D4
:10577000E10082E08093D2021092CE028091E1009B
:105780008E7F8093E1008091E2008E7F8093E20023
:105790008091E20080618093E20042E060E080E07E
:1057A0000E94162A8091F00088608093F0000E9489
:1057B000DD26FF91EF91BF91AF919F918F917F91E6
:1057C0006F915F914F913F912F910F900FBE0F906E
:1057D0001F9018951F920F920FB60F9211242F93BE
:1057E0003F934F935F936F937F938F939F93AF9369
:1057F000BF93CF93DF93EF93FF93C091E900CF70F6
:105800008091EC00D82FD17080FDD0E81092E90093
:105810008091F000877F8093F00078940E942E2C76
:105820001092E9008091F00088608093F000CD2B09
:10583000CF70C093E900FF91EF91DF91CF91BF91BD
:10584000AF919F918F917F916F915F914F913F9118
:105850002F910F900FBE0F901F9018951F93CF930D
:10586000DF93CDB7DEB7AA970FB6F894DEBF0FBEB1
:10587000CDBFE3EDF2E08091F100819322E0EB3DBA
:10588000F207C9F70E9417278091E80083FF2EC115
:105890008091D3029091D402492F50E04A305105B3
:1058A00008F024C1FA01E458FF4F0C94042E80380C
:1058B00021F0823809F01AC108C08091CF0290917E
:1058C000D002992389F082600FC08091D7028F7037
:1058D000873008F00BC18093E9008091EB0085FBD5
:1058E000882780F91092E9009091E800977F9093C3
:1058F000E8008093F1001092F100D1C0282F2D7F95
:1059000009F0F4C0882319F0823061F0EFC0809173
:10591000D502813009F0EAC0933009F080E080932D
:10592000D0022EC08091D50281112AC08091D70269
:105930008F702FEF280F263008F0D8C08093E90031
:105940002091EB0020FF1CC0933021F48091EB00EC
:10595000806214C09091EB0090619093EB0021E085
:1059600030E0A90102C0440F551F8A95E2F7409329
:10597000EA001092EA008091EB0088608093EB00CF
:105980001092E9008091E800877F8093E8000E94F0
:105990004B2AACC08111AAC01091D5021F7780910B
:1059A000E3008078812B8093E3008091E800877F7B
:1059B0008093E8000E944B2A8091E80080FFFCCF92
:1059C0008091E30080688093E300111102C082E0BF
:1059D00001C083E08093D20289C08058823008F0F1
:1059E00085C08091D5029091D6028C3D53E09507F9
:1059F00079F583E08A838AE289834FB7F894DE01E0
:105A0000139620E03EE051E2E32FF0E05093570080
:105A1000E49120FF03C0E295EF703F5FEF708E2F9F
:105A200090E0EA3010F0C79601C0C0968D939D9328
:105A30002F5F243149F74FBF8091E800877F809323
:105A4000E8006AE270E0CE0101960E94572916C074
:105A50006091D7027091D802AE014F5F5F4F0E94F4
:105A60005328BC01892B09F441C09091E800977F2D
:105A70009093E80089819A810E94B5298091E8007D
:105A80008B778093E80032C0803881F58091E80000
:105A9000877F8093E8008091CE028093F10080910F
:105AA000E8008E7772CF811121C08091D50290914C
:105AB000D60299270297D4F48091E800877F8093DB
:105AC000E8008091D5028093CE020E944B2A8091FB
:105AD000CE02811106C08091E30087FD02C081E003
